S0100000536572766F3132382E737265636A
S113000045C00000CBC20000E7C200005CC0000095
S11300105AC0000058C0000056C0000054C0000080
S113002052C0000050C000004EC000004CC0000090
S11300304AC0000048C0000046C0000044C00000A0
S1130040F0C2000040C000003EC000003CC0000000
S11300503AC0000038C0000036C0000034C00000C0
S113006032C0000030C000002EC000002CC00000D0
S11300702AC0000028C0000026C0000024C00000E0
S113008022C0000020C000001EC0000011241FBEBA
S1130090CFEFD0E1DEBFCDBF11E0A0E0B1E0E6ECF0
S11300A0F0E100E00BBF02C007900D92AA31B10746
S11300B0D9F721E0AAE1B1E001C01D92A833B2074B
S11300C0E1F747D2FEC79CCF8BB3806F8BBBDA9A24
S11300D08AB38F708ABB29B3DA98DA9A99B3DA981B
S11300E0207F892F82958F70822B08952BB32F70D8
S11300F0982F907F922B9BBBDA9ADA9830E1839FFA
S1130100C0011124822B8BBBDA9ADA980895CF931D
S1130110DF931F92CDB7DEB7D898D99AD5DF8983FC
S113012089818823CCF3D9988FEF8ABB0F90DF9114
S1130130CF9108958FEF8ABB8ABBD898D998DA9863
S1130140DA9ADD9ADA98E3DF88E2D0DFE0DFD89844
S11301508EE0CCDFDCDFD89886E0C8DFD8CF089506
S1130160D89890E4899F600D1124862F815CBEDFAE
S1130170CECF0895D89881E0B9DFC9CF0895D89A31
S1130180B5DFC5CF08950F931F93CF93FC018081F2
S1130190882351F08F01C0E0F2DFCF5FF801EC0F4C
S11301A0F11D80818111F8CFCF911F910F91089596
S11301B0109261008FEF8093620080E487B985E834
S11301C086B9089597B1892B87B9369A349BFECFA7
S11301D084B195B10895149A83E280938B0082E0F0
S11301E080938A0010928C001092850010928400F3
S11301F00895811524E0920710F08FEF93E0909317
S1130200850080938400089587E083BF8CE382BFD8
S113021081E087BF089581B38C7F81BB83E082BB7B
S113022089BF8EE080936A0008958FEF84BB16988F
S11302301E9A08954F925F926F927F928F929F922F
S1130240AF92BF92CF92DF92EF92FF924B015C018B
S113025024E630E040E050E010D42B013C0180E380
S1130260820F8DDF0F2EFAE0CF2ED12CE12CF12C52
S1130270F02DC301B201A7019601FFD380E3820FE1
S11302807EDFC501B401A7019601F7D380E3860F91
S113029076DFFF90EF90DF90CF90BF90AF909F906C
S11302A08F907F906F905F904F900895CF93DF93DE
S11302B0EC0161E081E054DF80E091E064DF6DE017
S11302C081E04EDF9E01A4E6B0E0F3D32FEF33E0EC
S11302D040E050E0B0D3CA01B90188279927AADFCA
S11302E060E181E03DDF8CE091E04DDFDF91CF9173
S11302F008950F931F93CF93DF93CDB7DEB7649721
S11303000FB6F894DEBF0FBECDBF61E082E028DFF8
S1130310809130011F928F938EE091E09F938F9391
S11303208E010F5F1F4F1F930F93F0D3C8012BDF74
S11303300F900F900F900F900F900F9064960FB640
S1130340F894DEBF0FBECDBFDF91CF911F910F9107
S113035008958F929F92AF92BF92CF92DF92EF92C5
S1130360FF921F93CF93DF93E82F162F69017A0131
S1130370C091300120913401309135014091360112
S113038050913701A8E6B1E0A3D3DC01CB01072EDD
S11303907AE0B695A795979587957A95D1F7702DBC
S11303A0D0E09C012C1B3D0BE901309333012093D9
S11303B03201E29FB001E39F700D1124072E000C5F
S11303C0880B990B0ED260932801709329018093B6
S11303D02A0190932B018090240190902501A090F4
S11303E02601B090270139E1139FB00111246C9FBD
S11303F0C0016D9F900D7C9F900D112468EE73E0F9
S113040007D3072E000C880B990BEBD1A50194019F
S113041052D1609324017093250180932601909317
S1130420270180911A0190911B01BE01681B790B71
S1130430072E000C880B990BD4D1A701960185D205
S113044020E030E040E252E480D2609320017093D7
S113045021018093220190932301609128017091DE
S1130460290180912A0190912B012091240130913E
S11304702501409126015091270180902001909000
S11304802101A0902201B0902301C0901C01D090C2
S11304901D01E0901E01F0901F010DD1A5019401F2
S11304A00AD1A701960107D160931C0170931D0125
S11304B080931E0190931F0160911C0170911D0196
S11304C080911E0190911F0120E030EC4FE754E42D
S11304D038D2181664F480E090ECAFE7B4E480936B
S11304E01C0190931D01A0931E01B0931F01609104
S11304F01C0170911D0180911E0190911F0120E04B
S113050030E040E85FE33BD1882364F480E090E08E
S1130510A0E8BFE380931C0190931D01A0931E01EA
S1130520B0931F0160911C0170911D0180911E0107
S113053090911F0128D1CB015CDEDF91CF911F91F7
S1130540FF90EF90DF90CF90BF90AF909F908F90EF
S113055008956BDE2DDE3FDEEDDD0CDE5CDE54DE69
S1130560789402E011E0C4E3D1E080E090E02ADE78
S1130570A0E0B0E08093340190933501A09336015C
S1130580B093370180913101882311F015BB01C06C
S113059005BB888199818ADEACDEE7CF1F920F927A
S11305A00FB60F9211242F938F939F938091310153
S11305B08095809331012FE788E391E021508040BA
S11305C09040E1F700C000009F918F912F910F9010
S11305D00FBE0F901F9018951F920F920FB60F9297
S11305E011248F939F93AF93BF9380912C0190918B
S11305F02D01A0912E01B0912F010196A11DB11DD5
S113060080932C0190932D01A0932E01B0932F0180
S1130610BF91AF919F918F910F900FBE0F901F903C
S113062018951F920F920FB60F9211240BB60F92CA
S11306302F933F934F935F936F937F938F939F93E6
S1130640AF93BF93EF93FF938CE382BF20912C0170
S113065030912D0140912E0150912F01A0E6B9E077
S113066037D228E631E040E050E007D22093300151
S113067010922C0110922D0110922E0110922F0134
S113068020E030E040E85FE361E083E062DEFF9178
S1130690EF91BF91AF919F918F917F916F915F91F6
S11306A04F913F912F910F900BBE0F900FBE0F9063
S11306B01F9018955058BB27AA270ED008C1F9D00F
S11306C030F0FED020F031F49F3F11F41EF4EEC060
S11306D00EF4E095E7FBE4C0E92F0AD180F3BA17E2
S11306E0620773078407950718F071F49EF522C119
S11306F00EF4E0950B2EBA2FA02D0B01B901900139
S11307000C01CA01A0011124FF27591B99F0593F7C
S113071050F4503E68F11A16F040A22F232F342FC4
S11307204427585FF3CF469537952795A795F04012
S11307305395C9F77EF41F16BA0B620B730B840B27
S1130740BAF09150A1F0FF0FBB1F661F771F881FDF
S1130750C2F70EC0BA0F621F731F841F48F4879537
S113076077956795B795F7959E3F08F0B3CF939526
S1130770880F08F09927EE0F9795879508956CD008
S113078008F481E00895BCD088F09F5790F0B92F09
S11307909927B751A0F0D1F0660F771F881F991FD2
S11307A01AF0BA95C9F712C0B13081F0C3D0B1E0E4
S11307B00895C0C0672F782F8827B85F39F0B93FF4
S11307C0CCF3869577956795B395D9F73EF49095D4
S11307D08095709561957F4F8F4F9F4F0895E89452
S11307E009C097FB3EF490958095709561957F4F75
S11307F08F4F9F4F9923A9F0F92F96E9BB27939523
S1130800F695879577956795B795F111F8CFFAF432
S1130810BB0F11F460FF1BC06F5F7F4F8F4F9F4F63
S113082016C0882311F096E911C0772321F09EE8C1
S1130830872F762F05C0662371F096E8862F70E027
S113084060E02AF09A95660F771F881FDAF7880F01
S11308509695879597F90895990F0008550FAA0B57
S1130860E0E8FEEF16161706E807F907C0F01216BF
S11308701306E407F50798F0621B730B840B950BC2
S113088039F40A2661F0232B242B252B21F4089517
S11308900A2609F4A140A6958FEF811D811D0895B4
S11308A097F99F6780E870E060E008959FEF80EC1F
S11308B0089500240A9416161706180609060895C2
S11308C000240A9412161306140605060895092E28
S11308D00394000C11F4882352F0BB0F40F4BF2B97
S11308E011F460FF04C06F5F7F4F8F4F9F4F0895D7
S11308F057FD9058440F551F59F05F3F71F04795CD
S1130900880F97FB991F61F09F3F79F087950895B1
S1130910121613061406551FF2CF4695F1DF08C0D0
S1130920161617061806991FF1CF869571056105ED
S113093008940895E894BB2766277727CB0197F995
S113094008958ADF08F48FEF08950BD0C0CFB1DF8C
S113095028F0B6DF18F0952309F0A2CFA7CF112411
S1130960EACFC6DFA0F3959FD1F3950F50E0551F52
S1130970629FF001729FBB27F00DB11D639FAA27F0
S1130980F00DB11DAA1F649F6627B00DA11D661F3F
S1130990829F2227B00DA11D621F739FB00DA11D60
S11309A0621F839FA00D611D221F749F3327A00D1A
S11309B0611D231F849F600D211D822F762F6A2FB6
S11309C011249F5750408AF0E1F088234AF0EE0F3B
S11309D0FF1FBB1F661F771F881F91505040A9F748
S11309E09E3F510570F05CCFA6CF5F3FECF3983E7D
S11309F0DCF3869577956795B795F795E7959F5FAF
S1130A00C1F7FE2B880F911D9695879597F9089548
S1130A1097FB072E16F4009406D077FD08D062D019
S1130A2007FC05D03EF4909581959F4F08957095ED
S1130A3061957F4F0895A1E21A2EAA1BBB1BFD01ED
S1130A400DC0AA1FBB1FEE1FFF1FA217B307E407A9
S1130A50F50720F0A21BB30BE40BF50B661F771F01
S1130A60881F991F1A9469F76095709580959095E1
S1130A709B01AC01BD01CF010895052E97FB16F42F
S1130A8000940FD057FD05D0D6DF07FC02D046F402
S1130A9008C050954095309521953F4F4F4F5F4F7B
S1130AA0089590958095709561957F4F8F4F9F4FD6
S1130AB00895A29FB001B39FC001A39F700D811D33
S1130AC01124911DB29F700D811D1124911D089553
S1130AD0F0DFA59F900DB49F900DA49F800D911DF4
S1130AE011240895AA1BBB1B51E107C0AA1FBB1FF9
S1130AF0A617B70710F0A61BB70B881F991F5A95A6
S1130B00A9F780959095BC01CD0108950F931F938B
S1130B10CF93DF93CDB7DEB72E970FB6F894DEBF31
S1130B200FBECDBF0D891E8986E08C831A8309838D
S1130B308FEF9FE79E838D83AE01475E5F4F6F8982
S1130B40788DCE01019610D0EF81F885E00FF11F6A
S1130B5010822E960FB6F894DEBF0FBECDBFDF9184
S1130B60CF911F910F9108952F923F924F925F92D0
S1130B706F927F928F929F92AF92BF92CF92DF92A9
S1130B80EF92FF920F931F93CF93DF93CDB7DEB70E
S1130B902B970FB6F894DEBF0FBECDBF6C017B015F
S1130BA08A01FC0117821682838181FFBFC1CE01B5
S1130BB001963C01F6019381F70193FD859193FF22
S1130BC081917F01882309F4ADC1853239F493FD05
S1130BD0859193FF81917F01853221F4B60190E0E4
S1130BE0D6D1E8CF912C212C312CFFE1F315D8F08C
S1130BF08B3279F038F4803279F08332A1F4232DEA
S1130C0020611DC08D3261F0803369F4232D216091
S1130C1016C0832D8260382EE32DE4603E2E2AC058
S1130C20F32DF8601DC037FC2DC020ED280F2A30AD
S1130C3040F08E32B9F436FC75C1232D2064322E77
S1130C4019C036FE06C08AE0989E200D1124922E0B
S1130C5011C0EAE02E9E200D1124222EF32DF06205
S1130C603F2E08C08C3621F4832D8068382E02C0B4
S1130C70883641F4F70193FD859193FF81917F01BB
S1130C808111B3CF982F9F7D9554933028F40C5F36
S1130C901F4F9FE399830DC0833631F0833771F082
S1130CA0833509F055C020C0F801808189830E5F27
S1130CB01F4F88248394912C530112C02801F2E021
S1130CC04F0E511CF801A080B18036FE03C0692D7F
S1130CD070E002C06FEF7FEFC5014ED14C0182017D
S1130CE0F32DFF773F2E15C0280122E0420E511C40
S1130CF0F801A080B18036FE03C0692D70E002C007
S1130D006FEF7FEFC5012DD14C01F32DF0683F2E1D
S1130D10820133FC19C0822D90E088169906A0F454
S1130D20B60180E290E033D12A94F5CFF50137FC87
S1130D30859137FE81915F01B60190E028D12110A1
S1130D402A9421E0821A91088114910479F7E1C070
S1130D50843611F0893639F5F80137FE07C0608111
S1130D607181828193810C5F1F4F08C06081718102
S1130D70072E000C880B990B0E5F1F4FF32DFF7687
S1130D803F2E97FF09C090958095709561957F4F90
S1130D908F4F9F4FF0683F2E2AE030E0A30133D1FC
S1130DA0882E861844C0853731F4232D2F7EB22E29
S1130DB02AE030E025C0932D997FB92E8F36C1F0FB
S1130DC018F4883579F0AEC0803719F0883721F0EF
S1130DD0A9C0E92FE061BE2EB4FE0DC0FB2DF46066
S1130DE0BF2E09C034FE0AC0292F2660B22E06C0C9
S1130DF028E030E005C020E130E002C020E132E02C
S1130E00F801B7FE07C060817181828193810C5F14
S1130E101F4F06C06081718180E090E00E5F1F4F1C
S1130E20A301F1D0882E8618FB2DFF773F2E36FEC6
S1130E300DC0232D2E7FA22E891458F434FE0BC02E
S1130E4032FC09C0832D8E7EA82E05C0B82CA32C9D
S1130E5003C0B82C01C0B92CA4FE0FC0FE01E80DDC
S1130E60F11D8081803321F49A2D997EA92E09C029
S1130E70A2FE06C0B394B39404C08A2D867809F008
S1130E80B394A3FC10C0A0FE06C0B21480F4280CD6
S1130E90922C9B180DC0B21458F4B60180E290E075
S1130EA076D0B394F8CFB21418F42B1802C0982C4F
S1130EB0212CA4FE0FC0B60180E390E068D0A2FE0E
S1130EC016C0A1FC03C088E790E002C088E590E06A
S1130ED0B6010CC08A2D867851F0A1FE02C08BE2C7
S1130EE001C080E2A7FC8DE2B60190E050D08914E5
S1130EF030F4B60180E390E04AD09A94F8CF8A9413
S1130F00F301E80DF11D8081B60190E040D081101D
S1130F10F6CF222009F44ECEB60180E290E037D01D
S1130F202A94F7CFF6018681978102C08FEF9FEF55
S1130F302B960FB6F894DEBF0FBECDBFDF91CF91D5
S1130F401F910F91FF90EF90DF90CF90BF90AF90E3
S1130F509F908F907F906F905F904F903F902F90D5
S1130F600895FC010590615070400110D8F78095F8
S1130F7090958E0F9F1F0895FC0161507040019061
S1130F800110D8F7809590958E0F9F1F08950F93A9
S1130F901F93CF93DF93FB01238121FD03C08FEFC8
S1130FA09FEF2CC022FF16C04681578124813581D2
S1130FB04217530744F4A081B1819D012F5F3F4F35
S1130FC0318320838C93268137812F5F3F4F378372
S1130FD0268314C08B01EC01FB010084F185E02D14
S1130FE00995892BE1F6D80116968D919C91179756
S1130FF0019617969C938E931697CE01DF91CF910D
S11310001F910F910895FA01AA27283051F1203138
S113101081F1E8946F936E7F6E5F7F4F8F4F9F4F88
S1131020AF4FB1E03ED0B4E03CD0670F781F891FCA
S11310309A1FA11D680F791F8A1F911DA11D6A0F98
S1131040711D811D911DA11D20D009F468943F914B
S11310502AE0269F11243019305D3193DEF6CF014A
S11310600895462F4770405D4193B3E00FD0C9F710
S1131070F6CF462F4F70405D4A3318F0495D31FD7D
S11310804052419302D0A9F7EACFB4E0A6959795D0
S1131090879577956795BA95C9F7009761057105A6
S11310A008959B01AC010A2E0694579547953795F0
S11310B02795BA95C9F7620F731F841F951FA01D4A
S10910C00895F894FFCF2F
S11310C644757479204379636C653A00250052505F
S10D10D64D3A20256420202000007C
S9030000FC
